{"abi":[{"type":"function","name":"proofs","inputs":[{"name":"","type":"bytes32","internalType":"bytes32"}],"outputs":[{"name":"","type":"bool","internalType":"bool"}],"stateMutability":"view"},{"type":"function","name":"storeProof","inputs":[{"name":"hash","type":"bytes32","internalType":"bytes32"}],"outputs":[],"stateMutability":"nonpayable"},{"type":"function","name":"verifyProof","inputs":[{"name":"hash","type":"bytes32","internalType":"bytes32"}],"outputs":[{"name":"","type":"bool","internalType":"bool"}],"stateMutability":"view"}],"bytecode":{"object":"0x6080604052348015600e575f5ffd5b506101f68061001c5f395ff3fe608060405234801561000f575f5ffd5b506004361061003f575f3560e01c8063444d95b0146100435780638952877b14610073578063b142b4ec1461008f575b5f5ffd5b61005d60048036038101906100589190610162565b6100bf565b60405161006a91906101a7565b60405180910390f35b61008d60048036038101906100889190610162565b6100db565b005b6100a960048036038101906100a49190610162565b610106565b6040516100b691906101a7565b60405180910390f35b5f602052805f5260405f205f915054906101000a900460ff1681565b60015f5f8381526020019081526020015f205f6101000a81548160ff02191690831515021790555050565b5f5f5f8381526020019081526020015f205f9054906101000a900460ff169050919050565b5f5ffd5b5f819050919050565b6101418161012f565b811461014b575f5ffd5b50565b5f8135905061015c81610138565b92915050565b5f602082840312156101775761017661012b565b5b5f6101848482850161014e565b91505092915050565b5f8115159050919050565b6101a18161018d565b82525050565b5f6020820190506101ba5f830184610198565b9291505056fea264697066735822122021039318d638566defa604aed5c80b691486299aaa1d445f8030473003287e0064736f6c63430008210033","linkReferences":{}},"methodIdentifiers":{"proofs(bytes32)":"444d95b0","storeProof(bytes32)":"8952877b","verifyProof(bytes32)":"b142b4ec"},"id":16}