{
    "abi": [
        {
            "type": "constructor",
            "inputs": [],
            "stateMutability": "nonpayable"
        },
        {
            "type": "function",
            "name": "completeAppointment",
            "inputs": [
                {
                    "name": "appointmentId",
                    "type": "uint256",
                    "internalType": "uint256"
                }
            ],
            "outputs": [],
            "stateMutability": "nonpayable"
        },
        {
            "type": "function",
            "name": "confirmAppointment",
            "inputs": [
                {
                    "name": "appointmentId",
                    "type": "uint256",
                    "internalType": "uint256"
                }
            ],
            "outputs": [],
            "stateMutability": "nonpayable"
        },
        {
            "type": "function",
            "name": "createAppointment",
            "inputs": [
                {
                    "name": "doctor",
                    "type": "address",
                    "internalType": "address"
                },
                {
                    "name": "date",
                    "type": "uint256",
                    "internalType": "uint256"
                }
            ],
            "outputs": [],
            "stateMutability": "nonpayable"
        },
        {
            "type": "function",
            "name": "getAppointment",
            "inputs": [
                {
                    "name": "appointmentId",
                    "type": "uint256",
                    "internalType": "uint256"
                }
            ],
            "outputs": [
                {
                    "name": "",
                    "type": "tuple",
                    "internalType": "struct HealthConsultationBooking.Appointment",
                    "components": [
                        {
                            "name": "id",
                            "type": "uint256",
                            "internalType": "uint256"
                        },
                        {
                            "name": "patient",
                            "type": "address",
                            "internalType": "address"
                        },
                        {
                            "name": "doctor",
                            "type": "address",
                            "internalType": "address"
                        },
                        {
                            "name": "date",
                            "type": "uint256",
                            "internalType": "uint256"
                        },
                        {
                            "name": "isConfirmed",
                            "type": "bool",
                            "internalType": "bool"
                        },
                        {
                            "name": "isCompleted",
                            "type": "bool",
                            "internalType": "bool"
                        }
                    ]
                }
            ],
            "stateMutability": "view"
        },
        {
            "type": "function",
            "name": "owner",
            "inputs": [],
            "outputs": [
                {
                    "name": "",
                    "type": "address",
                    "internalType": "address"
                }
            ],
            "stateMutability": "view"
        },
        {
            "type": "function",
            "name": "renounceOwnership",
            "inputs": [],
            "outputs": [],
            "stateMutability": "nonpayable"
        },
        {
            "type": "function",
            "name": "transferOwnership",
            "inputs": [
                {
                    "name": "newOwner",
                    "type": "address",
                    "internalType": "address"
                }
            ],
            "outputs": [],
            "stateMutability": "nonpayable"
        },
        {
            "type": "event",
            "name": "AppointmentCompleted",
            "inputs": [
                {
                    "name": "appointmentId",
                    "type": "uint256",
                    "indexed": true,
                    "internalType": "uint256"
                },
                {
                    "name": "doctor",
                    "type": "address",
                    "indexed": true,
                    "internalType": "address"
                }
            ],
            "anonymous": false
        },
        {
            "type": "event",
            "name": "AppointmentConfirmed",
            "inputs": [
                {
                    "name": "appointmentId",
                    "type": "uint256",
                    "indexed": true,
                    "internalType": "uint256"
                },
                {
                    "name": "doctor",
                    "type": "address",
                    "indexed": true,
                    "internalType": "address"
                }
            ],
            "anonymous": false
        },
        {
            "type": "event",
            "name": "AppointmentCreated",
            "inputs": [
                {
                    "name": "appointmentId",
                    "type": "uint256",
                    "indexed": true,
                    "internalType": "uint256"
                },
                {
                    "name": "patient",
                    "type": "address",
                    "indexed": true,
                    "internalType": "address"
                },
                {
                    "name": "doctor",
                    "type": "address",
                    "indexed": true,
                    "internalType": "address"
                },
                {
                    "name": "date",
                    "type": "uint256",
                    "indexed": false,
                    "internalType": "uint256"
                }
            ],
            "anonymous": false
        },
        {
            "type": "event",
            "name": "OwnershipTransferred",
            "inputs": [
                {
                    "name": "previousOwner",
                    "type": "address",
                    "indexed": true,
                    "internalType": "address"
                },
                {
                    "name": "newOwner",
                    "type": "address",
                    "indexed": true,
                    "internalType": "address"
                }
            ],
            "anonymous": false
        },
        {
            "type": "error",
            "name": "OwnableInvalidOwner",
            "inputs": [
                {
                    "name": "owner",
                    "type": "address",
                    "internalType": "address"
                }
            ]
        },
        {
            "type": "error",
            "name": "OwnableUnauthorizedAccount",
            "inputs": [
                {
                    "name": "account",
                    "type": "address",
                    "internalType": "address"
                }
            ]
        }
    ],
    "bytecode": {
        "object": "0x608060405234801561000f575f5ffd5b50335f73ffffffffffffffffffffffffffffffffffffffff168173ffffffffffffffffffffffffffffffffffffffff1603610081575f6040517f1e4fbdf70000000000000000000000000000000000000000000000000000000081526004016100789190610196565b60405180910390fd5b6100908161009660201b60201c565b506101af565b5f5f5f9054906101000a900473ffffffffffffffffffffffffffffffffffffffff169050815f5f6101000a81548173ffffffffffffffffffffffffffffffffffffffff021916908373ffffffffffffffffffffffffffffffffffffffff1602179055508173ffffffffffffffffffffffffffffffffffffffff168173ffffffffffffffffffffffffffffffffffffffff167f8be0079c531659141344cd1fd0a4f28419497f9722a3daafe3b4186f6b6457e060405160405180910390a35050565b5f73ffffffffffffffffffffffffffffffffffffffff82169050919050565b5f61018082610157565b9050919050565b61019081610176565b82525050565b5f6020820190506101a95f830184610187565b92915050565b610cfd806101bc5f395ff3fe608060405234801561000f575f5ffd5b506004361061007b575f3560e01c80638da5cb5b116100595780638da5cb5b146100d5578063cefead95146100f3578063dad9f3531461010f578063f2fde38b1461012b5761007b565b80630d943da21461007f5780634095b117146100af578063715018a6146100cb575b5f5ffd5b6100996004803603810190610094919061096b565b610147565b6040516100a69190610a77565b60405180910390f35b6100c960048036038101906100c4919061096b565b610264565b005b6100d36103db565b005b6100dd6103ee565b6040516100ea9190610a9f565b60405180910390f35b61010d6004803603810190610108919061096b565b610415565b005b61012960048036038101906101249190610ae2565b61052b565b005b61014560048036038101906101409190610b20565b610701565b005b61014f6108d4565b60025f8381526020019081526020015f206040518060c00160405290815f8201548152602001600182015f9054906101000a900473ffffffffffffffffffffffffffffffffffffffff1673ffffffffffffffffffffffffffffffffffffffff1673ffffffffffffffffffffffffffffffffffffffff168152602001600282015f9054906101000a900473ffffffffffffffffffffffffffffffffffffffff1673ffffffffffffffffffffffffffffffffffffffff1673ffffffffffffffffffffffffffffffffffffffff16815260200160038201548152602001600482015f9054906101000a900460ff161515151581526020016004820160019054906101000a900460ff1615151515815250509050919050565b803373ffffffffffffffffffffffffffffffffffffffff1660025f8381526020019081526020015f206002015f9054906101000a900473ffffffffffffffffffffffffffffffffffffffff1673ffffffffffffffffffffffffffffffffffffffff1614610306576040517f08c379a00000000000000000000000000000000000000000000000000000000081526004016102fd90610ba5565b60405180910390fd5b60025f8381526020019081526020015f206004015f9054906101000a900460ff16610366576040517f08c379a000000000000000000000000000000000000000000000000000000000815260040161035d90610c0d565b60405180910390fd5b600160025f8481526020019081526020015f2060040160016101000a81548160ff0219169083151502179055503373ffffffffffffffffffffffffffffffffffffffff16827ff6e08b3b0c1b8d707ae5ca95d1a5186c46b4f4dc69d339a0e2d4814f7a80b00c60405160405180910390a35050565b6103e3610785565b6103ec5f61080c565b565b5f5f5f9054906101000a900473ffffffffffffffffffffffffffffffffffffffff16905090565b803373ffffffffffffffffffffffffffffffffffffffff1660025f8381526020019081526020015f206002015f9054906101000a900473ffffffffffffffffffffffffffffffffffffffff1673ffffffffffffffffffffffffffffffffffffffff16146104b7576040517f08c379a00000000000000000000000000000000000000000000000000000000081526004016104ae90610ba5565b60405180910390fd5b600160025f8481526020019081526020015f206004015f6101000a81548160ff0219169083151502179055503373ffffffffffffffffffffffffffffffffffffffff16827f43276b17e53ece72862aef119a0d7ba1adcd7560de3ea12e9a44d7e1aaa066f860405160405180910390a35050565b5f60015490506040518060c001604052808281526020013373ffffffffffffffffffffffffffffffffffffffff1681526020018473ffffffffffffffffffffffffffffffffffffffff1681526020018381526020015f151581526020015f151581525060025f8381526020019081526020015f205f820151815f01556020820151816001015f6101000a81548173ffffffffffffffffffffffffffffffffffffffff021916908373ffffffffffffffffffffffffffffffffffffffff1602179055506040820151816002015f6101000a81548173ffffffffffffffffffffffffffffffffffffffff021916908373ffffffffffffffffffffffffffffffffffffffff160217905550606082015181600301556080820151816004015f6101000a81548160ff02191690831515021790555060a08201518160040160016101000a81548160ff02191690831515021790555090505060015f81548092919061069190610c58565b91905055508273ffffffffffffffffffffffffffffffffffffffff163373ffffffffffffffffffffffffffffffffffffffff16827f0b9ee4e832d33228ec3c327e11ab6fe00741e59113c2cdb03acc1d95d085529f856040516106f49190610cae565b60405180910390a4505050565b610709610785565b5f73ffffffffffffffffffffffffffffffffffffffff168173ffffffffffffffffffffffffffffffffffffffff1603610779575f6040517f1e4fbdf70000000000000000000000000000000000000000000000000000000081526004016107709190610a9f565b60405180910390fd5b6107828161080c565b50565b61078d6108cd565b73ffffffffffffffffffffffffffffffffffffffff166107ab6103ee565b73ffffffffffffffffffffffffffffffffffffffff161461080a576107ce6108cd565b6040517f118cdaa70000000000000000000000000000000000000000000000000000000081526004016108019190610a9f565b60405180910390fd5b565b5f5f5f9054906101000a900473ffffffffffffffffffffffffffffffffffffffff169050815f5f6101000a81548173ffffffffffffffffffffffffffffffffffffffff021916908373ffffffffffffffffffffffffffffffffffffffff1602179055508173ffffffffffffffffffffffffffffffffffffffff168173ffffffffffffffffffffffffffffffffffffffff167f8be0079c531659141344cd1fd0a4f28419497f9722a3daafe3b4186f6b6457e060405160405180910390a35050565b5f33905090565b6040518060c001604052805f81526020015f73ffffffffffffffffffffffffffffffffffffffff1681526020015f73ffffffffffffffffffffffffffffffffffffffff1681526020015f81526020015f151581526020015f151581525090565b5f5ffd5b5f819050919050565b61094a81610938565b8114610954575f5ffd5b50565b5f8135905061096581610941565b92915050565b5f602082840312156109805761097f610934565b5b5f61098d84828501610957565b91505092915050565b61099f81610938565b82525050565b5f73ffffffffffffffffffffffffffffffffffffffff82169050919050565b5f6109ce826109a5565b9050919050565b6109de816109c4565b82525050565b5f8115159050919050565b6109f8816109e4565b82525050565b60c082015f820151610a125f850182610996565b506020820151610a2560208501826109d5565b506040820151610a3860408501826109d5565b506060820151610a4b6060850182610996565b506080820151610a5e60808501826109ef565b5060a0820151610a7160a08501826109ef565b50505050565b5f60c082019050610a8a5f8301846109fe565b92915050565b610a99816109c4565b82525050565b5f602082019050610ab25f830184610a90565b92915050565b610ac1816109c4565b8114610acb575f5ffd5b50565b5f81359050610adc81610ab8565b92915050565b5f5f60408385031215610af857610af7610934565b5b5f610b0585828601610ace565b9250506020610b1685828601610957565b9150509250929050565b5f60208284031215610b3557610b34610934565b5b5f610b4284828501610ace565b91505092915050565b5f82825260208201905092915050565b7f4f6e6c7920646f63746f720000000000000000000000000000000000000000005f82015250565b5f610b8f600b83610b4b565b9150610b9a82610b5b565b602082019050919050565b5f6020820190508181035f830152610bbc81610b83565b9050919050565b7f4e6f7420636f6e6669726d6564000000000000000000000000000000000000005f82015250565b5f610bf7600d83610b4b565b9150610c0282610bc3565b602082019050919050565b5f6020820190508181035f830152610c2481610beb565b9050919050565b7f4e487b71000000000000000000000000000000000000000000000000000000005f52601160045260245ffd5b5f610c6282610938565b91507fffffffffffffffffffffffffffffffffffffffffffffffffffffffffffffffff8203610c9457610c93610c2b565b5b600182019050919050565b610ca881610938565b82525050565b5f602082019050610cc15f830184610c9f565b9291505056fea264697066735822122087e9de26d43a4c92875e56ab9cca234ab9788d44f4f5c121aa63e5a3a6887e8c64736f6c63430008210033",
        "linkReferences": {}
    },
    "methodIdentifiers": {
        "completeAppointment(uint256)": "4095b117",
        "confirmAppointment(uint256)": "cefead95",
        "createAppointment(address,uint256)": "dad9f353",
        "getAppointment(uint256)": "0d943da2",
        "owner()": "8da5cb5b",
        "renounceOwnership()": "715018a6",
        "transferOwnership(address)": "f2fde38b"
    },
    "id": 18
}